:10000000A3C00000BCC00000BAC00000B8C000001F
:10001000B6C00000B4C00000B2C00000B0C0000014
:10002000AEC00000ACC0000033C30000FDC3000040
:10003000A6C00000A4C00000A2C00000A0C0000034
:100040009EC000009CC000009AC0000098C0000044
:1000500096C0000094C0000092C0000090C0000054
:100060008EC000008CC000008AC0000088C0000064
:1000700086C0000084C0000082C0000080C0000074
:100080007EC000007CC000007AC0000078C0000084
:1000900076C0000074C0000072C0000070C0000094
:1000A0006EC000006CC000006AC000002A034C0053
:1000B000550046004100200043004400430020005A
:1000C0004100700070006C00690063006100740002
:1000D00069006F006E0000001A034C0055004600D6
:1000E000410020004C006900620072006100720053
:1000F000790000000403090409023E00020100C067
:10010000320904000001020201000524001001046C
:100110002402060524060001070582030800FF09E2
:10012000040100020A000000070504021000050790
:100130000583021000051201100102000008EB0304
:10014000442001000102DC0111241FBECFEFDAE0E0
:10015000DEBFCDBF11E0A0E0B1E0E0EEFEE002C006
:1001600005900D92AC31B107D9F721E0ACE1B1E0D7
:1001700001C01D92A932B207E1F71AD0AFC640CF35
:1001800084B7877F84BF0FB6F894A89580916000EC
:10019000886180936000109260000FBE80E890E05C
:1001A0000FB6F89480936100909361000FBE53C224
:1001B000CF93DF931F92CDB7DEB7E2DF789440D0C4
:1001C0008C010150110910F437D0F9CFCE010196FE
:1001D0003AD0898152D0F5CF292F332722303105EB
:1001E00071F02330310581F021303105A1F482E135
:1001F00090E026E331E0FA013183208308958EE315
:1002000090E028EF30E0F7CF99278130910571F029
:1002100038F0029771F090E080E030E020E0EBCF22
:10022000E4EFF0E0849190E09F01E5CFE8EDF0E0AD
:10023000F9CFECEAF0E0F6CF80E091E027D58BC46F
:1002400080E091E039C5CF93DF93EC0180E091E04D
:1002500062D5209741F097FD0DC0888390E080E043
:10026000DF91CF910895892F880F880B082E000CFD
:10027000990BF6CF8FEF9FEFF3CF682F80E091E0DF
:10028000AAD490E008950895089580E091E07EC496
:1002900080E091E078C5FC014489558966897789B9
:1002A000403B544061057105C1F4FC01808980FD2B
:1002B00014C087E797E79093010880930008909314
:1002C000FF0A8093FE0A88E19BE00FB6F894A89598
:1002D000809360000FBE909360000895FC018091B0
:1002E00027019091280186179707A0F061157105E5
:1002F00029F49091E8009E779093E80090E06115D2
:10030000710551F4911108C08091E80082FF35C059
:1003100080E00895BC01F2CF809120018823C9F1CB
:100320008530C9F18091E80083FD31C08091E800FB
:1003300082FDEACF8091E80080FFE1CF2091F300B9
:100340008091F200322F282F6115710519F02830A5
:10035000310558F091E02830310509F090E0209106
:10036000E8002E772093E800CACF81918093F100B6
:10037000615071092F5F3F4FE7CF809120018823A3
:1003800041F0853041F08091E80083FFBDCF81E0EE
:10039000089582E0089583E00895FC01809127018B
:1003A0009091280186179707A0F06115710529F42F
:1003B0008091E8008E778093E80090E061157105E8
:1003C00051F4911108C08091E80082FF36C080E0AE
:1003D0000895BC01F2CF809120018823D1F18530AE
:1003E000D1F18091E80083FD32C08091E80082FD68
:1003F000EACF8091E80080FFE1CF2091F300809167
:10040000F200322F282F6115710519F028303105BF
:1004100058F091E02830310509F090E08091E80033
:100420008E778093E800CACF84918093F100319653
:10043000615071092F5F3F4FE6CF809120018823E3
:1004400041F0853041F08091E80083FFBCCF81E02E
:10045000089582E0089583E00895982F973028F05A
:100460008F708093E90081E008959093E900242F34
:10047000762F50E0981731F07091EC002091ED004C
:100480005091F00021FD02C09F5FE8CF3091EB005A
:100490003E7F3093EB003091ED003D7F3093ED00D7
:1004A0003091EB0031603093EB007093EC002093BF
:1004B000ED005093F0002091EE0027FDE5CF80E0A5
:1004C00008950F931F93CF93DF93062FEC0110E055
:1004D000101302C081E00FC09881911103C01F5F0B
:1004E0002596F6CF2C81A981BA816B81892F8F70D7
:1004F000873030F080E0DF91CF911F910F91089508
:1005000042E0223008F046E0E8E0F0E020E0EA17C0
:10051000FB0778F02295207F422B20E4629FB001F8
:100520001124991F9927991F692B97DF8111D7CF24
:10053000E1CF2F5FEE0FFF1FEACF8091210187FFF0
:1005400013C08091E80082FF06C08091E8008B779D
:100550008093E80004C0809120018111F2CF0895BA
:10056000809120018823D9F38091E80080FFF8CFA3
:100570008091E8008E77ECCF2091E4003091E50087
:1005800085E69091EC0090FF06C09091E80090FF06
:1005900006C080E008959091E80092FDFACF909116
:1005A0002001992391F0953091F09091EB0095FD09
:1005B00010C04091E4005091E5002417350709F37D
:1005C00081509A01F1F684E0089582E0089583E075
:1005D000089581E008950F931F93CF93DF934BD03D
:1005E00052D0C8EDD0E088818F7788838881806879
:1005F000888388818F7D888319BC10922001109296
:100600001C0110921E0110921D0100EE10E0F80175
:1006100080818B7F808388818160888342E060E075
:1006200080E01BDFE1EEF0E080818E7F8083E2EEF0
:10063000F0E0808181608083808188608083F80120
:1006400080818E7F8083888180618883DF91CF91D4
:100650001F910F910895E8EDF0E080818F7E8083F7
:10066000E7EDF0E080818160808384E082BF81E0FB
:1006700080931F01B0CFE8EDF0E080818E7F808312
:100680001092E20008951092DA001092E1000895AD
:100690001F920F920FB60F9211242F933F934F93F7
:1006A0005F936F937F938F939F93AF93BF93EF93DA
:1006B000FF938091E10082FF0AC08091E20082FFF7
:1006C00006C08091E1008B7F8093E10043D280914E
:1006D000DA0080FF18C08091D80080FF14C080919C
:1006E000DA008E7F8093DA008091D90080FF8FC07E
:1006F00080E189BD82E189BD09B400FEFDCF81E0C2
:1007000080932001C0DD8091E10080FF18C08091BE
:10071000E20080FF14C08091E2008E7F8093E200AF
:100720008091E20080618093E2008091D800806235
:100730008093D80019BC85E0809320010BD2809172
:10074000E10084FF28C08091E20084FF24C080E1A2
:1007500089BD82E189BD09B400FEFDCF8091D8003A
:100760008F7D8093D8008091E1008F7E8093E1009F
:100770008091E2008F7E8093E2008091E2008160B0
:100780008093E20080911C01882309F445C084E035
:1007900080932001DFD18091E10083FF27C0809109
:1007A000E20083FF23C08091E100877F8093E10016
:1007B00082E08093200110921C018091E1008E7FE5
:1007C0008093E1008091E2008E7F8093E20080912F
:1007D000E20080618093E20042E060E080E03DDE84
:1007E0008091F00088608093F000B4D1FF91EF9188
:1007F000BF91AF919F918F917F916F915F914F9139
:100800003F912F910F900FBE0F901F90189519BC1C
:100810001092200139DD77CF8091E30087FD02C07F
:1008200081E0B6CF83E0B4CF1F920F920FB60F9244
:1008300011242F933F934F935F936F937F938F93E5
:100840009F93AF93BF93CF93EF93FF93C091E90032
:10085000CF708091EC001092E9008091F000877FCA
:100860008093F00078941BD01092E9008091F00002
:1008700088608093F000C093E900FF91EF91CF91E1
:10088000BF91AF919F918F917F916F915F914F91A8
:100890003F912F910F900FBE0F901F9018951F93AF
:1008A000CF93DF93CDB7DEB7AA970FB6F894DEBF2C
:1008B0000FBECDBFE1E2F1E08091F100819321E034
:1008C000E932F207C9F7E4DC8091E80083FF10C049
:1008D0008091210190912201953009F4D8C000F552
:1008E000913009F48BC008F461C0933009F486C0DC
:1008F0008091E80083FF0AC08091E800877F8093A1
:10090000E8008091EB0080628093EB00AA960FB61E
:10091000F894DEBF0FBECDBFDF91CF911F91089538
:10092000983009F4ECC0993009F4F6C0963001F71C
:1009300080588230E8F680912301909124018C3D0B
:1009400023E0920709F0C6C083E08A838AE28983A4
:100950004FB7F894DE01139620E03EE051E2E32F1A
:10096000F0E050935700E49120FF03C0E295EF7050
:100970003F5FEF708E2F90E0EA3008F4A9C0C79671
:100980008D939D932F5F243151F74FBF8091E800E5
:10099000877F8093E8006AE270E0CE0101969EDCDA
:1009A0008091E8008B778093E800A2CF803899F09F
:1009B000823809F09DCF809125018F70873008F033
:1009C00097CF8093E9008091EB0085FB882780F921
:1009D0001092E90006C080911D0190911E019111B5
:1009E00082609091E800977F9093E8008093F100F7
:1009F0001092F1008091E8008E7732C0282F2D7F71
:100A000009F076CF8823E9F0823009F071CF809128
:100A10002301811120C0809125018F702FEF280FB5
:100A2000263008F065CF8093E9002091EB0020FF8D
:100A300012C09330C9F48091EB0080628093EB0088
:100A40000AC080912301813009F052CF933009F020
:100A500080E080931E011092E9008091E800877F7A
:100A60008093E8006ADD44CF9091EB009061909311
:100A7000EB0021E030E001C0220F8A95EAF72093D5
:100A8000EA001092EA008091EB008860D7CF8111D4
:100A90002FCF109123011F778091E3008078812B65
:100AA0008093E3008091E800877F8093E80045DD34
:100AB0008091E80080FFFCCF8091E3008068809304
:100AC000E30083E0111101C082E08093200110CF88
:100AD000C09656CF6091250170912601AE014F5FFF
:100AE0005F4F7ADBBC01892B09F402CF9091E800BB
:100AF000977F9093E80089819A814FDC51CF8038AD
:100B000009F0F6CE8091E800877F8093E80080911D
:100B10001C018093F1006ECF8111EACE90912301E8
:100B2000923008F0E5CE8091E800877F8093E8005E
:100B300090931C0102DD80911C01882329F084E040
:100B400080932001A2DBD4CE8091E30087FDF7CF14
:100B500081E0F6CF0895CF9380912001882391F012
:100B6000C091E900CF708091EC0080FD0DC080E065
:100B7000C82B1092E9008091E80083FD90DECF70D1
:100B8000C093E900CF91089580E8F2CFCF93DF932F
:100B9000EC01FC0170968BE0DF011D928A95E9F76C
:100BA00082E08C83898783E08E8761E0CE010196A5
:100BB00088DC882361F061E0CE01069682DC882320
:100BC00031F061E0CE010B96DF91CF917ACC80E0DD
:100BD000DF91CF9108950F931F93CF932091200120
:100BE000243011F5FC010489158926893789012BE8
:100BF000022B032BC9F0C62F81818F708093E900EF
:100C00008091E80085FF07C0C093F10080E0CF919C
:100C10001F910F9108958091E8008E778093E800EE
:100C2000ABDC882389F3F3CF82E0F1CF2091200160
:100C3000243051F5FC014489558966897789452B13
:100C4000462B472B09F181818F708093E9008091B9
:100C5000F3009091F200892798278927892B11F4B6
:100C600080E008959091E8008091E8008E7780936D
:100C7000E80095FDF5CF80DC811107C09091E80078
:100C80009E779093E800089582E0089520912001D6
:100C9000243089F4FC014489558966897789452B7C
:100CA000462B472B41F021812F702093E9002091A2
:100CB000E80020FDBBCF089520912001243019F0D9
:100CC00090E080E00895FC01448955896689778920
:100CD000452B462B472BA1F386818F708093E9002B
:100CE0008091E80082FFECCF8091F3009091F200B8
:100CF000892798278927009731F42091E8002B77DE
:100D00002093E80008958091F3009091F2008927E4
:100D100098278927089520912001243019F08FEF1A
:100D20009FEF0895FC014489558966897789452B91
:100D3000462B472BA1F386818F708093E900809129
:100D4000E80082FFECCF8091F3009091F2008927B8
:100D500098278927892B91F08091F10090E02091CC
:100D6000F3003091F200232732272327232B29F485
:100D70002091E8002B772093E80008958FEF9FEFF4
:100D8000EECF08950895CF93DF93EC018091E800B2
:100D900083FF10C02881809125019091260128179A
:100DA000190641F4809122018132E1F030F4803261
:100DB00009F44DC0DF91CF910895823209F479C0D2
:100DC0008332C1F7809121018132A1F78091E8003F
:100DD000877F8093E800B1DB60912301CE01DF9132
:100DE000CF91D0CF80912101813A21F78091E80005
:100DF000877F8093E8008091E80080FFFCCF8C899A
:100E00009D89AE89BF898093F100492F5A2F6B2F9E
:100E100077274093F100AD01662777274093F100D3
:100E20008B2F9927AA27BB278093F100888D809369
:100E3000F100898D8093F1008A8D8093F10080917B
:100E4000E8008E778093E800DF91CF9176CB809198
:100E50002101813209F0AECF8091E800877F809335
:100E6000E8008091E80082FF1FC03091F1002091DE
:100E7000F1009091F1008091F1003C8B2D8B9E8BC5
:100E80008F8B8091F100888F8091F100898F809104
:100E9000F1008A8F8091E8008B778093E8004DDB2A
:100EA000CE01DF91CF916DCF809120018111D9CFFB
:100EB00081CF80912101813209F07CCF8091E800BF
:100EC000877F8093E80039DB809123019091240192
:100ED000998B888BCE01DF91CF91DDC9F894FFCF3C
:100EE00000831000000104100000018208000001CE
:0C0EF000000000000000000000000000F6
:00000001FF
